{
  "_format": "hh-sol-artifact-1",
  "contractName": "FiredGuys",
  "sourceName": "contracts/MyNFT.sol",
  "abi": [
    {
      "inputs": [
        {
          "internalType": "address",
          "name": "initialOwner",
          "type": "address"
        }
      ],
      "stateMutability": "nonpayable",
      "type": "constructor"
    },
    {
      "inputs": [
        {
          "internalType": "address",
          "name": "sender",
          "type": "address"
        },
        {
          "internalType": "uint256",
          "name": "tokenId",
          "type": "uint256"
        },
        {
          "internalType": "address",
          "name": "owner",
          "type": "address"
        }
      ],
      "name": "ERC721IncorrectOwner",
      "type": "error"
    },
    {
      "inputs": [
        {
          "internalType": "address",
          "name": "operator",
          "type": "address"
        },
        {
          "internalType": "uint256",
          "name": "tokenId",
          "type": "uint256"
        }
      ],
      "name": "ERC721InsufficientApproval",
      "type": "error"
    },
    {
      "inputs": [
        {
          "internalType": "address",
          "name": "approver",
          "type": "address"
        }
      ],
      "name": "ERC721InvalidApprover",
      "type": "error"
    },
    {
      "inputs": [
        {
          "internalType": "address",
          "name": "operator",
          "type": "address"
        }
      ],
      "name": "ERC721InvalidOperator",
      "type": "error"
    },
    {
      "inputs": [
        {
          "internalType": "address",
          "name": "owner",
          "type": "address"
        }
      ],
      "name": "ERC721InvalidOwner",
      "type": "error"
    },
    {
      "inputs": [
        {
          "internalType": "address",
          "name": "receiver",
          "type": "address"
        }
      ],
      "name": "ERC721InvalidReceiver",
      "type": "error"
    },
    {
      "inputs": [
        {
          "internalType": "address",
          "name": "sender",
          "type": "address"
        }
      ],
      "name": "ERC721InvalidSender",
      "type": "error"
    },
    {
      "inputs": [
        {
          "internalType": "uint256",
          "name": "tokenId",
          "type": "uint256"
        }
      ],
      "name": "ERC721NonexistentToken",
      "type": "error"
    },
    {
      "inputs": [
        {
          "internalType": "address",
          "name": "owner",
          "type": "address"
        }
      ],
      "name": "OwnableInvalidOwner",
      "type": "error"
    },
    {
      "inputs": [
        {
          "internalType": "address",
          "name": "account",
          "type": "address"
        }
      ],
      "name": "OwnableUnauthorizedAccount",
      "type": "error"
    },
    {
      "anonymous": false,
      "inputs": [
        {
          "indexed": true,
          "internalType": "address",
          "name": "owner",
          "type": "address"
        },
        {
          "indexed": true,
          "internalType": "address",
          "name": "approved",
          "type": "address"
        },
        {
          "indexed": true,
          "internalType": "uint256",
          "name": "tokenId",
          "type": "uint256"
        }
      ],
      "name": "Approval",
      "type": "event"
    },
    {
      "anonymous": false,
      "inputs": [
        {
          "indexed": true,
          "internalType": "address",
          "name": "owner",
          "type": "address"
        },
        {
          "indexed": true,
          "internalType": "address",
          "name": "operator",
          "type": "address"
        },
        {
          "indexed": false,
          "internalType": "bool",
          "name": "approved",
          "type": "bool"
        }
      ],
      "name": "ApprovalForAll",
      "type": "event"
    },
    {
      "anonymous": false,
      "inputs": [
        {
          "indexed": false,
          "internalType": "uint256",
          "name": "_fromTokenId",
          "type": "uint256"
        },
        {
          "indexed": false,
          "internalType": "uint256",
          "name": "_toTokenId",
          "type": "uint256"
        }
      ],
      "name": "BatchMetadataUpdate",
      "type": "event"
    },
    {
      "anonymous": false,
      "inputs": [
        {
          "indexed": false,
          "internalType": "uint256",
          "name": "_tokenId",
          "type": "uint256"
        }
      ],
      "name": "MetadataUpdate",
      "type": "event"
    },
    {
      "anonymous": false,
      "inputs": [
        {
          "indexed": true,
          "internalType": "address",
          "name": "previousOwner",
          "type": "address"
        },
        {
          "indexed": true,
          "internalType": "address",
          "name": "newOwner",
          "type": "address"
        }
      ],
      "name": "OwnershipTransferred",
      "type": "event"
    },
    {
      "anonymous": false,
      "inputs": [
        {
          "indexed": true,
          "internalType": "address",
          "name": "from",
          "type": "address"
        },
        {
          "indexed": true,
          "internalType": "address",
          "name": "to",
          "type": "address"
        },
        {
          "indexed": true,
          "internalType": "uint256",
          "name": "tokenId",
          "type": "uint256"
        }
      ],
      "name": "Transfer",
      "type": "event"
    },
    {
      "inputs": [
        {
          "internalType": "address",
          "name": "to",
          "type": "address"
        },
        {
          "internalType": "uint256",
          "name": "tokenId",
          "type": "uint256"
        }
      ],
      "name": "approve",
      "outputs": [],
      "stateMutability": "nonpayable",
      "type": "function"
    },
    {
      "inputs": [
        {
          "internalType": "address",
          "name": "owner",
          "type": "address"
        }
      ],
      "name": "balanceOf",
      "outputs": [
        {
          "internalType": "uint256",
          "name": "",
          "type": "uint256"
        }
      ],
      "stateMutability": "view",
      "type": "function"
    },
    {
      "inputs": [],
      "name": "current",
      "outputs": [
        {
          "internalType": "uint256",
          "name": "",
          "type": "uint256"
        }
      ],
      "stateMutability": "view",
      "type": "function"
    },
    {
      "inputs": [
        {
          "internalType": "uint256",
          "name": "tokenId",
          "type": "uint256"
        }
      ],
      "name": "getApproved",
      "outputs": [
        {
          "internalType": "address",
          "name": "",
          "type": "address"
        }
      ],
      "stateMutability": "view",
      "type": "function"
    },
    {
      "inputs": [],
      "name": "increment",
      "outputs": [],
      "stateMutability": "nonpayable",
      "type": "function"
    },
    {
      "inputs": [
        {
          "internalType": "address",
          "name": "owner",
          "type": "address"
        },
        {
          "internalType": "address",
          "name": "operator",
          "type": "address"
        }
      ],
      "name": "isApprovedForAll",
      "outputs": [
        {
          "internalType": "bool",
          "name": "",
          "type": "bool"
        }
      ],
      "stateMutability": "view",
      "type": "function"
    },
    {
      "inputs": [
        {
          "internalType": "string",
          "name": "uri",
          "type": "string"
        }
      ],
      "name": "isContentOwned",
      "outputs": [
        {
          "internalType": "bool",
          "name": "",
          "type": "bool"
        }
      ],
      "stateMutability": "view",
      "type": "function"
    },
    {
      "inputs": [],
      "name": "name",
      "outputs": [
        {
          "internalType": "string",
          "name": "",
          "type": "string"
        }
      ],
      "stateMutability": "view",
      "type": "function"
    },
    {
      "inputs": [],
      "name": "owner",
      "outputs": [
        {
          "internalType": "address",
          "name": "",
          "type": "address"
        }
      ],
      "stateMutability": "view",
      "type": "function"
    },
    {
      "inputs": [
        {
          "internalType": "uint256",
          "name": "tokenId",
          "type": "uint256"
        }
      ],
      "name": "ownerOf",
      "outputs": [
        {
          "internalType": "address",
          "name": "",
          "type": "address"
        }
      ],
      "stateMutability": "view",
      "type": "function"
    },
    {
      "inputs": [
        {
          "internalType": "address",
          "name": "recipient",
          "type": "address"
        },
        {
          "internalType": "string",
          "name": "metadataURI",
          "type": "string"
        }
      ],
      "name": "payToMint",
      "outputs": [
        {
          "internalType": "uint256",
          "name": "",
          "type": "uint256"
        }
      ],
      "stateMutability": "payable",
      "type": "function"
    },
    {
      "inputs": [],
      "name": "renounceOwnership",
      "outputs": [],
      "stateMutability": "nonpayable",
      "type": "function"
    },
    {
      "inputs": [
        {
          "internalType": "address",
          "name": "to",
          "type": "address"
        },
        {
          "internalType": "string",
          "name": "uri",
          "type": "string"
        }
      ],
      "name": "safeMint",
      "outputs": [],
      "stateMutability": "nonpayable",
      "type": "function"
    },
    {
      "inputs": [
        {
          "internalType": "address",
          "name": "from",
          "type": "address"
        },
        {
          "internalType": "address",
          "name": "to",
          "type": "address"
        },
        {
          "internalType": "uint256",
          "name": "tokenId",
          "type": "uint256"
        }
      ],
      "name": "safeTransferFrom",
      "outputs": [],
      "stateMutability": "nonpayable",
      "type": "function"
    },
    {
      "inputs": [
        {
          "internalType": "address",
          "name": "from",
          "type": "address"
        },
        {
          "internalType": "address",
          "name": "to",
          "type": "address"
        },
        {
          "internalType": "uint256",
          "name": "tokenId",
          "type": "uint256"
        },
        {
          "internalType": "bytes",
          "name": "data",
          "type": "bytes"
        }
      ],
      "name": "safeTransferFrom",
      "outputs": [],
      "stateMutability": "nonpayable",
      "type": "function"
    },
    {
      "inputs": [
        {
          "internalType": "address",
          "name": "operator",
          "type": "address"
        },
        {
          "internalType": "bool",
          "name": "approved",
          "type": "bool"
        }
      ],
      "name": "setApprovalForAll",
      "outputs": [],
      "stateMutability": "nonpayable",
      "type": "function"
    },
    {
      "inputs": [
        {
          "internalType": "bytes4",
          "name": "interfaceId",
          "type": "bytes4"
        }
      ],
      "name": "supportsInterface",
      "outputs": [
        {
          "internalType": "bool",
          "name": "",
          "type": "bool"
        }
      ],
      "stateMutability": "view",
      "type": "function"
    },
    {
      "inputs": [],
      "name": "symbol",
      "outputs": [
        {
          "internalType": "string",
          "name": "",
          "type": "string"
        }
      ],
      "stateMutability": "view",
      "type": "function"
    },
    {
      "inputs": [
        {
          "internalType": "uint256",
          "name": "tokenId",
          "type": "uint256"
        }
      ],
      "name": "tokenURI",
      "outputs": [
        {
          "internalType": "string",
          "name": "",
          "type": "string"
        }
      ],
      "stateMutability": "view",
      "type": "function"
    },
    {
      "inputs": [
        {
          "internalType": "address",
          "name": "from",
          "type": "address"
        },
        {
          "internalType": "address",
          "name": "to",
          "type": "address"
        },
        {
          "internalType": "uint256",
          "name": "tokenId",
          "type": "uint256"
        }
      ],
      "name": "transferFrom",
      "outputs": [],
      "stateMutability": "nonpayable",
      "type": "function"
    },
    {
      "inputs": [
        {
          "internalType": "address",
          "name": "newOwner",
          "type": "address"
        }
      ],
      "name": "transferOwnership",
      "outputs": [],
      "stateMutability": "nonpayable",
      "type": "function"
    }
  ],
  "bytecode": "0x60806040523480156200001157600080fd5b506040516200319c3803806200319c833981810160405281019062000037919062000288565b806040518060400160405280600981526020017f46697265644775797300000000000000000000000000000000000000000000008152506040518060400160405280600381526020017f46595200000000000000000000000000000000000000000000000000000000008152508160009081620000b5919062000534565b508060019081620000c7919062000534565b505050600073ffffffffffffffffffffffffffffffffffffffff168173ffffffffffffffffffffffffffffffffffffffff16036200013f5760006040517f1e4fbdf70000000000000000000000000000000000000000000000000000000081526004016200013691906200062c565b60405180910390fd5b62000150816200015860201b60201c565b505062000649565b6000600760009054906101000a900473ffffffffffffffffffffffffffffffffffffffff16905081600760006101000a81548173ffffffffffffffffffffffffffffffffffffffff021916908373ffffffffffffffffffffffffffffffffffffffff1602179055508173ffffffffffffffffffffffffffffffffffffffff168173ffffffffffffffffffffffffffffffffffffffff167f8be0079c531659141344cd1fd0a4f28419497f9722a3daafe3b4186f6b6457e060405160405180910390a35050565b600080fd5b600073ffffffffffffffffffffffffffffffffffffffff82169050919050565b6000620002508262000223565b9050919050565b620002628162000243565b81146200026e57600080fd5b50565b600081519050620002828162000257565b92915050565b600060208284031215620002a157620002a06200021e565b5b6000620002b18482850162000271565b91505092915050565b600081519050919050565b7f4e487b7100000000000000000000000000000000000000000000000000000000600052604160045260246000fd5b7f4e487b7100000000000000000000000000000000000000000000000000000000600052602260045260246000fd5b600060028204905060018216806200033c57607f821691505b602082108103620003525762000351620002f4565b5b50919050565b60008190508160005260206000209050919050565b60006020601f8301049050919050565b600082821b905092915050565b600060088302620003bc7fffffffffffffffffffffffffffffffffffffffffffffffffffffffffffffffff826200037d565b620003c886836200037d565b95508019841693508086168417925050509392505050565b6000819050919050565b6000819050919050565b6000620004156200040f6200040984620003e0565b620003ea565b620003e0565b9050919050565b6000819050919050565b6200043183620003f4565b6200044962000440826200041c565b8484546200038a565b825550505050565b600090565b6200046062000451565b6200046d81848462000426565b505050565b5b8181101562000495576200048960008262000456565b60018101905062000473565b5050565b601f821115620004e457620004ae8162000358565b620004b9846200036d565b81016020851015620004c9578190505b620004e1620004d8856200036d565b83018262000472565b50505b505050565b600082821c905092915050565b60006200050960001984600802620004e9565b1980831691505092915050565b6000620005248383620004f6565b9150826002028217905092915050565b6200053f82620002ba565b67ffffffffffffffff8111156200055b576200055a620002c5565b5b62000567825462000323565b6200057482828562000499565b600060209050601f831160018114620005ac576000841562000597578287015190505b620005a3858262000516565b86555062000613565b601f198416620005bc8662000358565b60005b82811015620005e657848901518255600182019150602085019450602081019050620005bf565b8683101562000606578489015162000602601f891682620004f6565b8355505b6001600288020188555050505b505050505050565b620006268162000243565b82525050565b60006020820190506200064360008301846200061b565b92915050565b612b4380620006596000396000f3fe60806040526004361061012a5760003560e01c80638da5cb5b116100ab578063b88d4fde1161006f578063b88d4fde146103f7578063c87b56dd14610420578063d09de08a1461045d578063d204c45e14610474578063e985e9c51461049d578063f2fde38b146104da5761012a565b80638da5cb5b1461031057806395d89b411461033b5780639f1cabc6146103665780639fa6a6e3146103a3578063a22cb465146103ce5761012a565b806342842e0e116100f257806342842e0e14610226578063615fd9e21461024f5780636352211e1461027f57806370a08231146102bc578063715018a6146102f95761012a565b806301ffc9a71461012f57806306fdde031461016c578063081812fc14610197578063095ea7b3146101d457806323b872dd146101fd575b600080fd5b34801561013b57600080fd5b5061015660048036038101906101519190611e2f565b610503565b6040516101639190611e77565b60405180910390f35b34801561017857600080fd5b50610181610515565b60405161018e9190611f22565b60405180910390f35b3480156101a357600080fd5b506101be60048036038101906101b99190611f7a565b6105a7565b6040516101cb9190611fe8565b60405180910390f35b3480156101e057600080fd5b506101fb60048036038101906101f6919061202f565b6105c3565b005b34801561020957600080fd5b50610224600480360381019061021f919061206f565b6105d9565b005b34801561023257600080fd5b5061024d6004803603810190610248919061206f565b6106db565b005b610269600480360381019061026491906121f7565b6106fb565b6040516102769190612262565b60405180910390f35b34801561028b57600080fd5b506102a660048036038101906102a19190611f7a565b610822565b6040516102b39190611fe8565b60405180910390f35b3480156102c857600080fd5b506102e360048036038101906102de919061227d565b610834565b6040516102f09190612262565b60405180910390f35b34801561030557600080fd5b5061030e6108ee565b005b34801561031c57600080fd5b50610325610902565b6040516103329190611fe8565b60405180910390f35b34801561034757600080fd5b5061035061092c565b60405161035d9190611f22565b60405180910390f35b34801561037257600080fd5b5061038d600480360381019061038891906122aa565b6109be565b60405161039a9190611e77565b60405180910390f35b3480156103af57600080fd5b506103b86109f9565b6040516103c59190612262565b60405180910390f35b3480156103da57600080fd5b506103f560048036038101906103f0919061231f565b610a03565b005b34801561040357600080fd5b5061041e60048036038101906104199190612400565b610a19565b005b34801561042c57600080fd5b5061044760048036038101906104429190611f7a565b610a36565b6040516104549190611f22565b60405180910390f35b34801561046957600080fd5b50610472610a48565b005b34801561048057600080fd5b5061049b600480360381019061049691906121f7565b610a64565b005b3480156104a957600080fd5b506104c460048036038101906104bf9190612483565b610aa0565b6040516104d19190611e77565b60405180910390f35b3480156104e657600080fd5b5061050160048036038101906104fc919061227d565b610b34565b005b600061050e82610bba565b9050919050565b606060008054610524906124f2565b80601f0160208091040260200160405190810160405280929190818152602001828054610550906124f2565b801561059d5780601f106105725761010080835404028352916020019161059d565b820191906000526020600020905b81548152906001019060200180831161058057829003601f168201915b5050505050905090565b60006105b282610c1b565b506105bc82610ca3565b9050919050565b6105d582826105d0610ce0565b610ce8565b5050565b600073ffffffffffffffffffffffffffffffffffffffff168273ffffffffffffffffffffffffffffffffffffffff160361064b5760006040517f64a0ae920000000000000000000000000000000000000000000000000000000081526004016106429190611fe8565b60405180910390fd5b600061065f838361065a610ce0565b610cfa565b90508373ffffffffffffffffffffffffffffffffffffffff168173ffffffffffffffffffffffffffffffffffffffff16146106d5578382826040517f64283d7b0000000000000000000000000000000000000000000000000000000081526004016106cc93929190612523565b60405180910390fd5b50505050565b6106f683838360405180602001604052806000815250610a19565b505050565b60006001600a8360405161070f9190612596565b908152602001604051809103902060009054906101000a900460ff1660ff160361076e576040517f08c379a0000000000000000000000000000000000000000000000000000000008152600401610765906125f9565b60405180910390fd5b66b1a2bc2ec500003410156107b8576040517f08c379a00000000000000000000000000000000000000000000000000000000081526004016107af90612665565b60405180910390fd5b60006107c26109f9565b90506107cc610a48565b6001600a846040516107de9190612596565b908152602001604051809103902060006101000a81548160ff021916908360ff16021790555061080e8482610f14565b610818818461100d565b8091505092915050565b600061082d82610c1b565b9050919050565b60008073ffffffffffffffffffffffffffffffffffffffff168273ffffffffffffffffffffffffffffffffffffffff16036108a75760006040517f89c62b6400000000000000000000000000000000000000000000000000000000815260040161089e9190611fe8565b60405180910390fd5b600360008373ffffffffffffffffffffffffffffffffffffffff1673ffffffffffffffffffffffffffffffffffffffff168152602001908152602001600020549050919050565b6108f6611069565b61090060006110f0565b565b6000600760009054906101000a900473ffffffffffffffffffffffffffffffffffffffff16905090565b60606001805461093b906124f2565b80601f0160208091040260200160405190810160405280929190818152602001828054610967906124f2565b80156109b45780601f10610989576101008083540402835291602001916109b4565b820191906000526020600020905b81548152906001019060200180831161099757829003601f168201915b5050505050905090565b60006001600a836040516109d29190612596565b908152602001604051809103902060009054906101000a900460ff1660ff16149050919050565b6000600954905090565b610a15610a0e610ce0565b83836111b6565b5050565b610a248484846105d9565b610a3084848484611325565b50505050565b6060610a41826114dc565b9050919050565b600160096000828254610a5b91906126b4565b92505081905550565b610a6c611069565b600060086000815480929190610a81906126e8565b919050559050610a9183826115ef565b610a9b818361100d565b505050565b6000600560008473ffffffffffffffffffffffffffffffffffffffff1673ffffffffffffffffffffffffffffffffffffffff16815260200190815260200160002060008373ffffffffffffffffffffffffffffffffffffffff1673ffffffffffffffffffffffffffffffffffffffff16815260200190815260200160002060009054906101000a900460ff16905092915050565b610b3c611069565b600073ffffffffffffffffffffffffffffffffffffffff168173ffffffffffffffffffffffffffffffffffffffff1603610bae5760006040517f1e4fbdf7000000000000000000000000000000000000000000000000000000008152600401610ba59190611fe8565b60405180910390fd5b610bb7816110f0565b50565b6000634906490660e01b7bffffffffffffffffffffffffffffffffffffffffffffffffffffffff1916827bffffffffffffffffffffffffffffffffffffffffffffffffffffffff19161480610c145750610c138261160d565b5b9050919050565b600080610c27836116ef565b9050600073ffffffffffffffffffffffffffffffffffffffff168173ffffffffffffffffffffffffffffffffffffffff1603610c9a57826040517f7e273289000000000000000000000000000000000000000000000000000000008152600401610c919190612262565b60405180910390fd5b80915050919050565b60006004600083815260200190815260200160002060009054906101000a900473ffffffffffffffffffffffffffffffffffffffff169050919050565b600033905090565b610cf5838383600161172c565b505050565b600080610d06846116ef565b9050600073ffffffffffffffffffffffffffffffffffffffff168373ffffffffffffffffffffffffffffffffffffffff1614610d4857610d478184866118f1565b5b600073ffffffffffffffffffffffffffffffffffffffff168173ffffffffffffffffffffffffffffffffffffffff1614610dd957610d8a60008560008061172c565b6001600360008373ffffffffffffffffffffffffffffffffffffffff1673ffffffffffffffffffffffffffffffffffffffff168152602001908152602001600020600082825403925050819055505b600073ffffffffffffffffffffffffffffffffffffffff168573ffffffffffffffffffffffffffffffffffffffff1614610e5c576001600360008773ffffffffffffffffffffffffffffffffffffffff1673ffffffffffffffffffffffffffffffffffffffff168152602001908152602001600020600082825401925050819055505b846002600086815260200190815260200160002060006101000a81548173ffffffffffffffffffffffffffffffffffffffff021916908373ffffffffffffffffffffffffffffffffffffffff160217905550838573ffffffffffffffffffffffffffffffffffffffff168273ffffffffffffffffffffffffffffffffffffffff167fddf252ad1be2c89b69c2b068fc378daa952ba7f163c4a11628f55a4df523b3ef60405160405180910390a4809150509392505050565b600073ffffffffffffffffffffffffffffffffffffffff168273ffffffffffffffffffffffffffffffffffffffff1603610f865760006040517f64a0ae92000000000000000000000000000000000000000000000000000000008152600401610f7d9190611fe8565b60405180910390fd5b6000610f9483836000610cfa565b9050600073ffffffffffffffffffffffffffffffffffffffff168173ffffffffffffffffffffffffffffffffffffffff16146110085760006040517f73c6ac6e000000000000000000000000000000000000000000000000000000008152600401610fff9190611fe8565b60405180910390fd5b505050565b8060066000848152602001908152602001600020908161102d91906128dc565b507ff8e1a15aba9398e019f0b49df1a4fde98ee17ae345cb5f6b5e2c27f5033e8ce78260405161105d9190612262565b60405180910390a15050565b611071610ce0565b73ffffffffffffffffffffffffffffffffffffffff1661108f610902565b73ffffffffffffffffffffffffffffffffffffffff16146110ee576110b2610ce0565b6040517f118cdaa70000000000000000000000000000000000000000000000000000000081526004016110e59190611fe8565b60405180910390fd5b565b6000600760009054906101000a900473ffffffffffffffffffffffffffffffffffffffff16905081600760006101000a81548173ffffffffffffffffffffffffffffffffffffffff021916908373ffffffffffffffffffffffffffffffffffffffff1602179055508173ffffffffffffffffffffffffffffffffffffffff168173ffffffffffffffffffffffffffffffffffffffff167f8be0079c531659141344cd1fd0a4f28419497f9722a3daafe3b4186f6b6457e060405160405180910390a35050565b600073ffffffffffffffffffffffffffffffffffffffff168273ffffffffffffffffffffffffffffffffffffffff160361122757816040517f5b08ba1800000000000000000000000000000000000000000000000000000000815260040161121e9190611fe8565b60405180910390fd5b80600560008573ffffffffffffffffffffffffffffffffffffffff1673ffffffffffffffffffffffffffffffffffffffff16815260200190815260200160002060008473ffffffffffffffffffffffffffffffffffffffff1673ffffffffffffffffffffffffffffffffffffffff16815260200190815260200160002060006101000a81548160ff0219169083151502179055508173ffffffffffffffffffffffffffffffffffffffff168373ffffffffffffffffffffffffffffffffffffffff167f17307eab39ab6107e8899845ad3d59bd9653f200f220920489ca2b5937696c31836040516113189190611e77565b60405180910390a3505050565b60008373ffffffffffffffffffffffffffffffffffffffff163b11156114d6578273ffffffffffffffffffffffffffffffffffffffff1663150b7a02611369610ce0565b8685856040518563ffffffff1660e01b815260040161138b9493929190612a03565b6020604051808303816000875af19250505080156113c757506040513d601f19601f820116820180604052508101906113c49190612a64565b60015b61144b573d80600081146113f7576040519150601f19603f3d011682016040523d82523d6000602084013e6113fc565b606091505b50600081510361144357836040517f64a0ae9200000000000000000000000000000000000000000000000000000000815260040161143a9190611fe8565b60405180910390fd5b805181602001fd5b63150b7a0260e01b7bffffffffffffffffffffffffffffffffffffffffffffffffffffffff1916817bffffffffffffffffffffffffffffffffffffffffffffffffffffffff1916146114d457836040517f64a0ae920000000000000000000000000000000000000000000000000000000081526004016114cb9190611fe8565b60405180910390fd5b505b50505050565b60606114e782610c1b565b506000600660008481526020019081526020016000208054611508906124f2565b80601f0160208091040260200160405190810160405280929190818152602001828054611534906124f2565b80156115815780601f1061155657610100808354040283529160200191611581565b820191906000526020600020905b81548152906001019060200180831161156457829003601f168201915b5050505050905060006115926119b5565b905060008151036115a75781925050506115ea565b6000825111156115dc5780826040516020016115c4929190612a91565b604051602081830303815290604052925050506115ea565b6115e5846119f2565b925050505b919050565b611609828260405180602001604052806000815250611a5b565b5050565b60007f80ac58cd000000000000000000000000000000000000000000000000000000007bffffffffffffffffffffffffffffffffffffffffffffffffffffffff1916827bffffffffffffffffffffffffffffffffffffffffffffffffffffffff191614806116d857507f5b5e139f000000000000000000000000000000000000000000000000000000007bffffffffffffffffffffffffffffffffffffffffffffffffffffffff1916827bffffffffffffffffffffffffffffffffffffffffffffffffffffffff1916145b806116e857506116e782611a77565b5b9050919050565b60006002600083815260200190815260200160002060009054906101000a900473ffffffffffffffffffffffffffffffffffffffff169050919050565b80806117655750600073ffffffffffffffffffffffffffffffffffffffff168273ffffffffffffffffffffffffffffffffffffffff1614155b1561189957600061177584610c1b565b9050600073ffffffffffffffffffffffffffffffffffffffff168373ffffffffffffffffffffffffffffffffffffffff16141580156117e057508273ffffffffffffffffffffffffffffffffffffffff168173ffffffffffffffffffffffffffffffffffffffff1614155b80156117f357506117f18184610aa0565b155b1561183557826040517fa9fbf51f00000000000000000000000000000000000000000000000000000000815260040161182c9190611fe8565b60405180910390fd5b811561189757838573ffffffffffffffffffffffffffffffffffffffff168273ffffffffffffffffffffffffffffffffffffffff167f8c5be1e5ebec7d5bd14f71427d1e84f3dd0314c0f7b2291e5b200ac8c7c3b92560405160405180910390a45b505b836004600085815260200190815260200160002060006101000a81548173ffffffffffffffffffffffffffffffffffffffff021916908373ffffffffffffffffffffffffffffffffffffffff16021790555050505050565b6118fc838383611ae1565b6119b057600073ffffffffffffffffffffffffffffffffffffffff168373ffffffffffffffffffffffffffffffffffffffff160361197157806040517f7e2732890000000000000000000000000000000000000000000000000000000081526004016119689190612262565b60405180910390fd5b81816040517f177e802f0000000000000000000000000000000000000000000000000000000081526004016119a7929190612ab5565b60405180910390fd5b505050565b60606040518060400160405280600781526020017f697066733a2f2f00000000000000000000000000000000000000000000000000815250905090565b60606119fd82610c1b565b506000611a086119b5565b90506000815111611a285760405180602001604052806000815250611a53565b80611a3284611ba2565b604051602001611a43929190612a91565b6040516020818303038152906040525b915050919050565b611a658383610f14565b611a726000848484611325565b505050565b60007f01ffc9a7000000000000000000000000000000000000000000000000000000007bffffffffffffffffffffffffffffffffffffffffffffffffffffffff1916827bffffffffffffffffffffffffffffffffffffffffffffffffffffffff1916149050919050565b60008073ffffffffffffffffffffffffffffffffffffffff168373ffffffffffffffffffffffffffffffffffffffff1614158015611b9957508273ffffffffffffffffffffffffffffffffffffffff168473ffffffffffffffffffffffffffffffffffffffff161480611b5a5750611b598484610aa0565b5b80611b9857508273ffffffffffffffffffffffffffffffffffffffff16611b8083610ca3565b73ffffffffffffffffffffffffffffffffffffffff16145b5b90509392505050565b606060006001611bb184611c70565b01905060008167ffffffffffffffff811115611bd057611bcf6120cc565b5b6040519080825280601f01601f191660200182016040528015611c025781602001600182028036833780820191505090505b509050600082602001820190505b600115611c65578080600190039150507f3031323334353637383961626364656600000000000000000000000000000000600a86061a8153600a8581611c5957611c58612ade565b5b04945060008503611c10575b819350505050919050565b600080600090507a184f03e93ff9f4daa797ed6e38ed64bf6a1f0100000000000000008310611cce577a184f03e93ff9f4daa797ed6e38ed64bf6a1f0100000000000000008381611cc457611cc3612ade565b5b0492506040810190505b6d04ee2d6d415b85acef81000000008310611d0b576d04ee2d6d415b85acef81000000008381611d0157611d00612ade565b5b0492506020810190505b662386f26fc100008310611d3a57662386f26fc100008381611d3057611d2f612ade565b5b0492506010810190505b6305f5e1008310611d63576305f5e1008381611d5957611d58612ade565b5b0492506008810190505b6127108310611d88576127108381611d7e57611d7d612ade565b5b0492506004810190505b60648310611dab5760648381611da157611da0612ade565b5b0492506002810190505b600a8310611dba576001810190505b80915050919050565b6000604051905090565b600080fd5b600080fd5b60007fffffffff0000000000000000000000000000000000000000000000000000000082169050919050565b611e0c81611dd7565b8114611e1757600080fd5b50565b600081359050611e2981611e03565b92915050565b600060208284031215611e4557611e44611dcd565b5b6000611e5384828501611e1a565b91505092915050565b60008115159050919050565b611e7181611e5c565b82525050565b6000602082019050611e8c6000830184611e68565b92915050565b600081519050919050565b600082825260208201905092915050565b60005b83811015611ecc578082015181840152602081019050611eb1565b60008484015250505050565b6000601f19601f8301169050919050565b6000611ef482611e92565b611efe8185611e9d565b9350611f0e818560208601611eae565b611f1781611ed8565b840191505092915050565b60006020820190508181036000830152611f3c8184611ee9565b905092915050565b6000819050919050565b611f5781611f44565b8114611f6257600080fd5b50565b600081359050611f7481611f4e565b92915050565b600060208284031215611f9057611f8f611dcd565b5b6000611f9e84828501611f65565b91505092915050565b600073ffffffffffffffffffffffffffffffffffffffff82169050919050565b6000611fd282611fa7565b9050919050565b611fe281611fc7565b82525050565b6000602082019050611ffd6000830184611fd9565b92915050565b61200c81611fc7565b811461201757600080fd5b50565b60008135905061202981612003565b92915050565b6000806040838503121561204657612045611dcd565b5b60006120548582860161201a565b925050602061206585828601611f65565b9150509250929050565b60008060006060848603121561208857612087611dcd565b5b60006120968682870161201a565b93505060206120a78682870161201a565b92505060406120b886828701611f65565b9150509250925092565b600080fd5b600080fd5b7f4e487b7100000000000000000000000000000000000000000000000000000000600052604160045260246000fd5b61210482611ed8565b810181811067ffffffffffffffff82111715612123576121226120cc565b5b80604052505050565b6000612136611dc3565b905061214282826120fb565b919050565b600067ffffffffffffffff821115612162576121616120cc565b5b61216b82611ed8565b9050602081019050919050565b82818337600083830152505050565b600061219a61219584612147565b61212c565b9050828152602081018484840111156121b6576121b56120c7565b5b6121c1848285612178565b509392505050565b600082601f8301126121de576121dd6120c2565b5b81356121ee848260208601612187565b91505092915050565b6000806040838503121561220e5761220d611dcd565b5b600061221c8582860161201a565b925050602083013567ffffffffffffffff81111561223d5761223c611dd2565b5b612249858286016121c9565b9150509250929050565b61225c81611f44565b82525050565b60006020820190506122776000830184612253565b92915050565b60006020828403121561229357612292611dcd565b5b60006122a18482850161201a565b91505092915050565b6000602082840312156122c0576122bf611dcd565b5b600082013567ffffffffffffffff8111156122de576122dd611dd2565b5b6122ea848285016121c9565b91505092915050565b6122fc81611e5c565b811461230757600080fd5b50565b600081359050612319816122f3565b92915050565b6000806040838503121561233657612335611dcd565b5b60006123448582860161201a565b92505060206123558582860161230a565b9150509250929050565b600067ffffffffffffffff82111561237a576123796120cc565b5b61238382611ed8565b9050602081019050919050565b60006123a361239e8461235f565b61212c565b9050828152602081018484840111156123bf576123be6120c7565b5b6123ca848285612178565b509392505050565b600082601f8301126123e7576123e66120c2565b5b81356123f7848260208601612390565b91505092915050565b6000806000806080858703121561241a57612419611dcd565b5b60006124288782880161201a565b94505060206124398782880161201a565b935050604061244a87828801611f65565b925050606085013567ffffffffffffffff81111561246b5761246a611dd2565b5b612477878288016123d2565b91505092959194509250565b6000806040838503121561249a57612499611dcd565b5b60006124a88582860161201a565b92505060206124b98582860161201a565b9150509250929050565b7f4e487b7100000000000000000000000000000000000000000000000000000000600052602260045260246000fd5b6000600282049050600182168061250a57607f821691505b60208210810361251d5761251c6124c3565b5b50919050565b60006060820190506125386000830186611fd9565b6125456020830185612253565b6125526040830184611fd9565b949350505050565b600081905092915050565b600061257082611e92565b61257a818561255a565b935061258a818560208601611eae565b80840191505092915050565b60006125a28284612565565b915081905092915050565b7f4e465420616c7265616479206d696e7465640000000000000000000000000000600082015250565b60006125e3601283611e9d565b91506125ee826125ad565b602082019050919050565b60006020820190508181036000830152612612816125d6565b9050919050565b7f4e65656420746f20706179207570210000000000000000000000000000000000600082015250565b600061264f600f83611e9d565b915061265a82612619565b602082019050919050565b6000602082019050818103600083015261267e81612642565b9050919050565b7f4e487b7100000000000000000000000000000000000000000000000000000000600052601160045260246000fd5b60006126bf82611f44565b91506126ca83611f44565b92508282019050808211156126e2576126e1612685565b5b92915050565b60006126f382611f44565b91507fffffffffffffffffffffffffffffffffffffffffffffffffffffffffffffffff820361272557612724612685565b5b600182019050919050565b60008190508160005260206000209050919050565b60006020601f8301049050919050565b600082821b905092915050565b6000600883026127927fffffffffffffffffffffffffffffffffffffffffffffffffffffffffffffffff82612755565b61279c8683612755565b95508019841693508086168417925050509392505050565b6000819050919050565b60006127d96127d46127cf84611f44565b6127b4565b611f44565b9050919050565b6000819050919050565b6127f3836127be565b6128076127ff826127e0565b848454612762565b825550505050565b600090565b61281c61280f565b6128278184846127ea565b505050565b5b8181101561284b57612840600082612814565b60018101905061282d565b5050565b601f8211156128905761286181612730565b61286a84612745565b81016020851015612879578190505b61288d61288585612745565b83018261282c565b50505b505050565b600082821c905092915050565b60006128b360001984600802612895565b1980831691505092915050565b60006128cc83836128a2565b9150826002028217905092915050565b6128e582611e92565b67ffffffffffffffff8111156128fe576128fd6120cc565b5b61290882546124f2565b61291382828561284f565b600060209050601f8311600181146129465760008415612934578287015190505b61293e85826128c0565b8655506129a6565b601f19841661295486612730565b60005b8281101561297c57848901518255600182019150602085019450602081019050612957565b868310156129995784890151612995601f8916826128a2565b8355505b6001600288020188555050505b505050505050565b600081519050919050565b600082825260208201905092915050565b60006129d5826129ae565b6129df81856129b9565b93506129ef818560208601611eae565b6129f881611ed8565b840191505092915050565b6000608082019050612a186000830187611fd9565b612a256020830186611fd9565b612a326040830185612253565b8181036060830152612a4481846129ca565b905095945050505050565b600081519050612a5e81611e03565b92915050565b600060208284031215612a7a57612a79611dcd565b5b6000612a8884828501612a4f565b91505092915050565b6000612a9d8285612565565b9150612aa98284612565565b91508190509392505050565b6000604082019050612aca6000830185611fd9565b612ad76020830184612253565b9392505050565b7f4e487b7100000000000000000000000000000000000000000000000000000000600052601260045260246000fdfea2646970667358221220e0a4d6c103c3d4a6eba9c689e4c3123fcbd8528e918e617d46fcba966b3d06e264736f6c63430008140033",
  "linkReferences": {},
  "deployedLinkReferences": {}
}